{"abi":[{"type":"constructor","inputs":[],"stateMutability":"nonpayable"},{"type":"function","name":"attest","inputs":[{"name":"attestationPayload","type":"tuple","internalType":"struct AttestationPayload","components":[{"name":"schemaId","type":"bytes32","internalType":"bytes32"},{"name":"expirationDate","type":"uint64","internalType":"uint64"},{"name":"subject","type":"bytes","internalType":"bytes"},{"name":"attestationData","type":"bytes","internalType":"bytes"}]},{"name":"attester","type":"address","internalType":"address"}],"outputs":[],"stateMutability":"nonpayable"},{"type":"function","name":"balanceOf","inputs":[{"name":"account","type":"address","internalType":"address"},{"name":"id","type":"uint256","internalType":"uint256"}],"outputs":[{"name":"","type":"uint256","internalType":"uint256"}],"stateMutability":"view"},{"type":"function","name":"balanceOfBatch","inputs":[{"name":"accounts","type":"address[]","internalType":"address[]"},{"name":"ids","type":"uint256[]","internalType":"uint256[]"}],"outputs":[{"name":"","type":"uint256[]","internalType":"uint256[]"}],"stateMutability":"view"},{"type":"function","name":"bulkAttest","inputs":[{"name":"attestationsPayloads","type":"tuple[]","internalType":"struct AttestationPayload[]","components":[{"name":"schemaId","type":"bytes32","internalType":"bytes32"},{"name":"expirationDate","type":"uint64","internalType":"uint64"},{"name":"subject","type":"bytes","internalType":"bytes"},{"name":"attestationData","type":"bytes","internalType":"bytes"}]},{"name":"attester","type":"address","internalType":"address"}],"outputs":[],"stateMutability":"nonpayable"},{"type":"function","name":"bulkReplace","inputs":[{"name":"attestationIds","type":"bytes32[]","internalType":"bytes32[]"},{"name":"attestationPayloads","type":"tuple[]","internalType":"struct AttestationPayload[]","components":[{"name":"schemaId","type":"bytes32","internalType":"bytes32"},{"name":"expirationDate","type":"uint64","internalType":"uint64"},{"name":"subject","type":"bytes","internalType":"bytes"},{"name":"attestationData","type":"bytes","internalType":"bytes"}]},{"name":"attester","type":"address","internalType":"address"}],"outputs":[],"stateMutability":"nonpayable"},{"type":"function","name":"bulkRevoke","inputs":[{"name":"attestationIds","type":"bytes32[]","internalType":"bytes32[]"}],"outputs":[],"stateMutability":"nonpayable"},{"type":"function","name":"getAttestation","inputs":[{"name":"attestationId","type":"bytes32","internalType":"bytes32"}],"outputs":[{"name":"","type":"tuple","internalType":"struct Attestation","components":[{"name":"attestationId","type":"bytes32","internalType":"bytes32"},{"name":"schemaId","type":"bytes32","internalType":"bytes32"},{"name":"replacedBy","type":"bytes32","internalType":"bytes32"},{"name":"attester","type":"address","internalType":"address"},{"name":"portal","type":"address","internalType":"address"},{"name":"attestedDate","type":"uint64","internalType":"uint64"},{"name":"expirationDate","type":"uint64","internalType":"uint64"},{"name":"revocationDate","type":"uint64","internalType":"uint64"},{"name":"version","type":"uint16","internalType":"uint16"},{"name":"revoked","type":"bool","internalType":"bool"},{"name":"subject","type":"bytes","internalType":"bytes"},{"name":"attestationData","type":"bytes","internalType":"bytes"}]}],"stateMutability":"view"},{"type":"function","name":"getAttestationIdCounter","inputs":[],"outputs":[{"name":"","type":"uint32","internalType":"uint32"}],"stateMutability":"view"},{"type":"function","name":"getVersionNumber","inputs":[],"outputs":[{"name":"","type":"uint16","internalType":"uint16"}],"stateMutability":"view"},{"type":"function","name":"incrementVersionNumber","inputs":[],"outputs":[{"name":"","type":"uint16","internalType":"uint16"}],"stateMutability":"nonpayable"},{"type":"function","name":"initialize","inputs":[],"outputs":[],"stateMutability":"nonpayable"},{"type":"function","name":"isRegistered","inputs":[{"name":"attestationId","type":"bytes32","internalType":"bytes32"}],"outputs":[{"name":"","type":"bool","internalType":"bool"}],"stateMutability":"view"},{"type":"function","name":"isRevocable","inputs":[{"name":"portalId","type":"address","internalType":"address"}],"outputs":[{"name":"","type":"bool","internalType":"bool"}],"stateMutability":"view"},{"type":"function","name":"massImport","inputs":[{"name":"attestationsPayloads","type":"tuple[]","internalType":"struct AttestationPayload[]","components":[{"name":"schemaId","type":"bytes32","internalType":"bytes32"},{"name":"expirationDate","type":"uint64","internalType":"uint64"},{"name":"subject","type":"bytes","internalType":"bytes"},{"name":"attestationData","type":"bytes","internalType":"bytes"}]},{"name":"portal","type":"address","internalType":"address"}],"outputs":[],"stateMutability":"nonpayable"},{"type":"function","name":"owner","inputs":[],"outputs":[{"name":"","type":"address","internalType":"address"}],"stateMutability":"view"},{"type":"function","name":"renounceOwnership","inputs":[],"outputs":[],"stateMutability":"nonpayable"},{"type":"function","name":"replace","inputs":[{"name":"attestationId","type":"bytes32","internalType":"bytes32"},{"name":"attestationPayload","type":"tuple","internalType":"struct AttestationPayload","components":[{"name":"schemaId","type":"bytes32","internalType":"bytes32"},{"name":"expirationDate","type":"uint64","internalType":"uint64"},{"name":"subject","type":"bytes","internalType":"bytes"},{"name":"attestationData","type":"bytes","internalType":"bytes"}]},{"name":"attester","type":"address","internalType":"address"}],"outputs":[],"stateMutability":"nonpayable"},{"type":"function","name":"revoke","inputs":[{"name":"attestationId","type":"bytes32","internalType":"bytes32"}],"outputs":[],"stateMutability":"nonpayable"},{"type":"function","name":"router","inputs":[],"outputs":[{"name":"","type":"address","internalType":"contract IRouter"}],"stateMutability":"view"},{"type":"function","name":"transferOwnership","inputs":[{"name":"newOwner","type":"address","internalType":"address"}],"outputs":[],"stateMutability":"nonpayable"},{"type":"function","name":"updateRouter","inputs":[{"name":"_router","type":"address","internalType":"address"}],"outputs":[],"stateMutability":"nonpayable"},{"type":"event","name":"AttestationRegistered","inputs":[{"name":"attestationId","type":"bytes32","indexed":true,"internalType":"bytes32"}],"anonymous":false},{"type":"event","name":"AttestationReplaced","inputs":[{"name":"attestationId","type":"bytes32","indexed":false,"internalType":"bytes32"},{"name":"replacedBy","type":"bytes32","indexed":false,"internalType":"bytes32"}],"anonymous":false},{"type":"event","name":"AttestationRevoked","inputs":[{"name":"attestationId","type":"bytes32","indexed":false,"internalType":"bytes32"}],"anonymous":false},{"type":"event","name":"Initialized","inputs":[{"name":"version","type":"uint8","indexed":false,"internalType":"uint8"}],"anonymous":false},{"type":"event","name":"OwnershipTransferred","inputs":[{"name":"previousOwner","type":"address","indexed":true,"internalType":"address"},{"name":"newOwner","type":"address","indexed":true,"internalType":"address"}],"anonymous":false},{"type":"event","name":"VersionUpdated","inputs":[{"name":"version","type":"uint16","indexed":false,"internalType":"uint16"}],"anonymous":false},{"type":"error","name":"AlreadyRevoked","inputs":[]},{"type":"error","name":"ArrayLengthMismatch","inputs":[]},{"type":"error","name":"AttestationDataFieldEmpty","inputs":[]},{"type":"error","name":"AttestationNotAttested","inputs":[]},{"type":"error","name":"AttestationNotRevocable","inputs":[]},{"type":"error","name":"AttestationSubjectFieldEmpty","inputs":[]},{"type":"error","name":"OnlyAttestingPortal","inputs":[]},{"type":"error","name":"OnlyPortal","inputs":[]},{"type":"error","name":"RouterInvalid","inputs":[]},{"type":"error","name":"SchemaNotRegistered","inputs":[]}],"bytecode":{"object":"0x608060405234801561001057600080fd5b5061001961001e565b6100dd565b600054610100900460ff161561008a5760405162461bcd60e51b815260206004820152602760248201527f496e697469616c697a61626c653a20636f6e747261637420697320696e697469604482015266616c697a696e6760c81b606482015260840160405180910390fd5b60005460ff908116146100db576000805460ff191660ff9081179091556040519081527f7f26b83ff96e1f2b6a682f133852f6798a09c465da95921460cefb38474024989060200160405180910390a15b565b6124e080620000ed6000396000f3fe608060405234801561001057600080fd5b50600436106101365760003560e01c80638da5cb5b116100b8578063c851cc321161007c578063c851cc32146102aa578063d0fc9f83146102bd578063d46f6a2c146102d0578063f20c1416146102e3578063f2fde38b14610308578063f887ea401461031b57600080fd5b80638da5cb5b1461022c5780638ffa736b14610251578063a3112a6414610264578063a8e2812d14610284578063b75c7dc61461029757600080fd5b806354255be0116100ff57806354255be0146101e357806362fa3d45146101f65780636ec4d4cb14610209578063715018a61461021c5780638129fc1c1461022457600080fd5b8062fdd58e1461013b57806327258b22146101615780634ada8076146101935780634cbe11cb146101a85780634e1273f4146101c3575b600080fd5b61014e6101493660046119a7565b61032e565b6040519081526020015b60405180910390f35b61018361016f3660046119d3565b600090815260666020526040902054151590565b6040519015158152602001610158565b6101a66101a1366004611a7d565b61060b565b005b6101b0610645565b60405161ffff9091168152602001610158565b6101d66101d1366004611b78565b6106d7565b6040516101589190611c39565b606554600160a01b900461ffff166101b0565b6101a6610204366004611c95565b6107b7565b6101a6610217366004611d31565b610cfe565b6101a6610d7f565b6101a6610d93565b6033546001600160a01b03165b6040516001600160a01b039091168152602001610158565b6101a661025f366004611db4565b610eaa565b6102776102723660046119d3565b610f4a565b6040516101589190611e5e565b6101a6610292366004611f67565b6111b6565b6101a66102a53660046119d3565b6111fc565b6101a66102b8366004611fb2565b611356565b6101a66102cb366004611f67565b6113a7565b6101836102de366004611fb2565b61171f565b606554600160b01b900463ffffffff1660405163ffffffff9091168152602001610158565b6101a6610316366004611fb2565b611816565b606554610239906001600160a01b031681565b6000808260405160200161034491815260200190565b60405160208183030381529060405261035c90611fd6565b60008181526066602090815260408083208151610180810183528154815260018201549381019390935260028101549183019190915260038101546001600160a01b03908116606084015260048201549081166080840152600160a01b90046001600160401b0390811660a0840152600582015480821660c0850152600160401b810490911660e0840152600160801b810461ffff16610100840152600160901b900460ff1615156101208301526006810180549495509293919290916101408401919061042990611ffa565b80601f016020809104026020016040519081016040528092919081815260200182805461045590611ffa565b80156104a25780601f10610477576101008083540402835291602001916104a2565b820191906000526020600020905b81548152906001019060200180831161048557829003601f168201915b505050505081526020016007820180546104bb90611ffa565b80601f01602080910402602001604051908101604052809291908181526020018280546104e790611ffa565b80156105345780601f1061050957610100808354040283529160200191610534565b820191906000526020600020905b81548152906001019060200180831161051757829003601f168201915b50505050508152505090506014816101400151511180156105895750604080516001600160a01b0387166020820152016040516020818303038152906040528051906020012081610140015180519060200120145b1561059957600192505050610605565b8061014001515160141480156105ee57506040516bffffffffffffffffffffffff19606087901b1660208201526034016040516020818303038152906040528051906020012081610140015180519060200120145b156105fe57600192505050610605565b6000925050505b92915050565b60005b81518110156106415761063982828151811061062c5761062c61202e565b60200260200101516111fc565b60010161060e565b5050565b600061064f61188c565b6065805460149061066a90600160a01b900461ffff1661205a565b82546101009290920a61ffff818102199093169183160217909155606554604051600160a01b90910490911681527f5891971a9a7b7a3d45b4bec8fe5ec184b79ca6d26177fbbddad04baa14fdc72c9060200160405180910390a150606554600160a01b900461ffff1690565b606081518351146106fb5760405163512509d360e11b815260040160405180910390fd5b600083516001600160401b03811115610716576107166119ec565b60405190808252806020026020018201604052801561073f578160200160208202803683370190505b50905060005b84518110156107af5761078a8582815181106107635761076361202e565b602002602001015185838151811061077d5761077d61202e565b602002602001015161032e565b82828151811061079c5761079c61202e565b6020908102919091010152600101610745565b509392505050565b336000606560009054906101000a90046001600160a01b03166001600160a01b031663b7dac9766040518163ffffffff1660e01b8152600401602060405180830381865afa15801561080d573d6000803e3d6000fd5b505050506040513d601f19601f82011682018060405250810190610831919061208b565b60405163c3c5a54760e01b81526001600160a01b038481166004830152919091169063c3c5a54790602401602060405180830381865afa158015610879573d6000803e3d6000fd5b505050506040513d601f19601f8201168201806040525081019061089d91906120b8565b9050806108bd57604051630f46c81b60e21b815260040160405180910390fd5b60655460408051631e216b9960e31b815290516000926001600160a01b03169163f10b5cc89160048083019260209291908290030181865afa158015610907573d6000803e3d6000fd5b505050506040513d601f19601f8201168201806040525081019061092b919061208b565b604051631392c59160e11b8152863560048201529091506001600160a01b038216906327258b2290602401602060405180830381865afa158015610973573d6000803e3d6000fd5b505050506040513d601f19601f8201168201806040525081019061099791906120b8565b6109b457604051638cc004a960e01b815260040160405180910390fd5b6109c160408601866120d3565b90506000036109e357604051636367e41160e01b815260040160405180910390fd5b6109f060608601866120d3565b9050600003610a1257604051634e46e0b360e01b815260040160405180910390fd5b60658054600160b01b900463ffffffff16906016610a2f83612119565b82546101009290920a63ffffffff81810219909316918316021790915560655460408051600160b01b90920490921660208201526000925001604051602081830303815290604052610a8090611fd6565b9050604051806101800160405280828152602001876000013581526020016000801b8152602001866001600160a01b03168152602001336001600160a01b03168152602001426001600160401b03168152602001876020016020810190610ae79190612132565b6001600160401b03168152600060208201819052606554600160a01b900461ffff166040808401919091526060830191909152608090910190610b2c908901896120d3565b8080601f016020809104026020016040519081016040528093929190818152602001838380828437600092019190915250505090825250602001610b7360608901896120d3565b8080601f0160208091040260200160405190810160405280939291908181526020018383808284376000920182905250939094525050838152606660209081526040918290208451815590840151600182015590830151600282015560608301516003820180546001600160a01b039283166001600160a01b0319909116179055608084015160048301805460a08701516001600160401b03908116600160a01b026001600160e01b0319909216939094169290921791909117905560c084015160058301805460e08701516101008801516101208901511515600160901b0260ff60901b1961ffff909216600160801b029190911662ffffff60801b19928716600160401b026001600160801b031990941695909616949094179190911716929092171790556101408301519091506006820190610cb290826121a6565b506101608201516007820190610cc890826121a6565b50506040518291507ffe10586889e06530420fe4a0d86aa4f7afc3c9dc84b0c77b731a9615496ef18a90600090a2505050505050565b838214610d1e5760405163512509d360e11b815260040160405180910390fd5b60005b84811015610d7757610d6f868683818110610d3e57610d3e61202e565b90506020020135858584818110610d5757610d5761202e565b9050602002810190610d699190612265565b84610eaa565b600101610d21565b505050505050565b610d8761188c565b610d9160006118e6565b565b600054610100900460ff1615808015610db35750600054600160ff909116105b80610dcd5750303b158015610dcd575060005460ff166001145b610e355760405162461bcd60e51b815260206004820152602e60248201527f496e697469616c697a61626c653a20636f6e747261637420697320616c72656160448201526d191e481a5b9a5d1a585b1a5e995960921b60648201526084015b60405180910390fd5b6000805460ff191660011790558015610e58576000805461ff0019166101001790555b610e60611938565b8015610ea7576000805461ff0019169055604051600181527f7f26b83ff96e1f2b6a682f133852f6798a09c465da95921460cefb3847402498906020015b60405180910390a15b50565b610eb482826107b7565b610ebd836111fc565b60655460408051600160b01b90920463ffffffff16602083015260009101604051602081830303815290604052610ef390611fd6565b60008581526066602090815260409182902060020183905581518781529081018390529192507f77d674474bd19340e11693fde02ab981634002a50709bcaf013916b59e40c07d910160405180910390a150505050565b60408051610180810182526000808252602080830182905282840182905260608084018390526080840183905260a0840183905260c0840183905260e08401839052610100840183905261012084018390526101408401819052610160840152848252606690529190912054610fd35760405163038d7caf60e21b815260040160405180910390fd5b6000828152606660209081526040918290208251610180810184528154815260018201549281019290925260028101549282019290925260038201546001600160a01b03908116606083015260048301549081166080830152600160a01b90046001600160401b0390811660a0830152600583015480821660c0840152600160401b810490911660e0830152600160801b810461ffff16610100830152600160901b900460ff1615156101208201526006820180549192916101408401919061109b90611ffa565b80601f01602080910402602001604051908101604052809291908181526020018280546110c790611ffa565b80156111145780601f106110e957610100808354040283529160200191611114565b820191906000526020600020905b8154815290600101906020018083116110f757829003601f168201915b5050505050815260200160078201805461112d90611ffa565b80601f016020809104026020016040519081016040528092919081815260200182805461115990611ffa565b80156111a65780601f1061117b576101008083540402835291602001916111a6565b820191906000526020600020905b81548152906001019060200180831161118957829003601f168201915b5050505050815250509050919050565b60005b828110156111f6576111ee8484838181106111d6576111d661202e565b90506020028101906111e89190612265565b836107b7565b6001016111b9565b50505050565b6000818152606660205260409020546112285760405163038d7caf60e21b815260040160405180910390fd5b600081815260666020526040902060050154600160901b900460ff16156112625760405163905e710760e01b815260040160405180910390fd5b6000818152606660205260409020600401546001600160a01b0316331461129f5760405160016246018d60e01b0319815260040160405180910390fd5b6000818152606660205260409020600401546112c3906001600160a01b031661171f565b6112e057604051632e7eadc560e11b815260040160405180910390fd5b6000818152606660205260409081902060050180546001600160401b034216600160401b0272ff0000ffffffffffffffff00000000000000001990911617600160901b179055517f04bed256ad23fe17d61d9248ee108825bf3b1d04527fee36f0ee2af633fc145290610e9e9083815260200190565b61135e61188c565b6001600160a01b038116611385576040516324a2034760e11b815260040160405180910390fd5b606580546001600160a01b0319166001600160a01b0392909216919091179055565b6113af61188c565b60005b828110156111f65760658054600160b01b900463ffffffff169060166113d783612119565b82546101009290920a63ffffffff81810219909316918316021790915560655460408051600160b01b9092049092166020820152600092500160405160208183030381529060405261142890611fd6565b905060405180610180016040528082815260200186868581811061144e5761144e61202e565b90506020028101906114609190612265565b358152600060208201523360408201526001600160a01b03851660608201526001600160401b034216608082015260a0018686858181106114a3576114a361202e565b90506020028101906114b59190612265565b6114c6906040810190602001612132565b6001600160401b03168152600060208201819052606554600160a01b900461ffff16604083015260608201526080018686858181106115075761150761202e565b90506020028101906115199190612265565b6115279060408101906120d3565b8080601f0160208091040260200160405190810160405280939291908181526020018383808284376000920191909152505050908252506020018686858181106115735761157361202e565b90506020028101906115859190612265565b6115939060608101906120d3565b8080601f0160208091040260200160405190810160405280939291908181526020018383808284376000920182905250939094525050838152606660209081526040918290208451815590840151600182015590830151600282015560608301516003820180546001600160a01b039283166001600160a01b0319909116179055608084015160048301805460a08701516001600160401b03908116600160a01b026001600160e01b0319909216939094169290921791909117905560c084015160058301805460e08701516101008801516101208901511515600160901b0260ff60901b1961ffff909216600160801b029190911662ffffff60801b19928716600160401b026001600160801b0319909416959096169490941791909117169290921717905561014083015190915060068201906116d290826121a6565b5061016082015160078201906116e890826121a6565b50506040518291507ffe10586889e06530420fe4a0d86aa4f7afc3c9dc84b0c77b731a9615496ef18a90600090a2506001016113b2565b600080606560009054906101000a90046001600160a01b03166001600160a01b031663b7dac9766040518163ffffffff1660e01b8152600401602060405180830381865afa158015611775573d6000803e3d6000fd5b505050506040513d601f19601f82011682018060405250810190611799919061208b565b60405163181f78e960e31b81526001600160a01b0385811660048301529192509082169063c0fbc74890602401600060405180830381865afa1580156117e3573d6000803e3d6000fd5b505050506040513d6000823e601f3d908101601f1916820160405261180b9190810190612354565b606001519392505050565b61181e61188c565b6001600160a01b0381166118835760405162461bcd60e51b815260206004820152602660248201527f4f776e61626c653a206e6577206f776e657220697320746865207a65726f206160448201526564647265737360d01b6064820152608401610e2c565b610ea7816118e6565b6033546001600160a01b03163314610d915760405162461bcd60e51b815260206004820181905260248201527f4f776e61626c653a2063616c6c6572206973206e6f7420746865206f776e65726044820152606401610e2c565b603380546001600160a01b038381166001600160a01b0319831681179093556040519116919082907f8be0079c531659141344cd1fd0a4f28419497f9722a3daafe3b4186f6b6457e090600090a35050565b600054610100900460ff1661195f5760405162461bcd60e51b8152600401610e2c9061245f565b610d91600054610100900460ff166119895760405162461bcd60e51b8152600401610e2c9061245f565b610d91336118e6565b6001600160a01b0381168114610ea757600080fd5b600080604083850312156119ba57600080fd5b82356119c581611992565b946020939093013593505050565b6000602082840312156119e557600080fd5b5035919050565b634e487b7160e01b600052604160045260246000fd5b60405160e081016001600160401b0381118282101715611a2457611a246119ec565b60405290565b604051601f8201601f191681016001600160401b0381118282101715611a5257611a526119ec565b604052919050565b60006001600160401b03821115611a7357611a736119ec565b5060051b60200190565b60006020808385031215611a9057600080fd5b82356001600160401b03811115611aa657600080fd5b8301601f81018513611ab757600080fd5b8035611aca611ac582611a5a565b611a2a565b81815260059190911b82018301908381019087831115611ae957600080fd5b928401925b82841015611b0757833582529284019290840190611aee565b979650505050505050565b600082601f830112611b2357600080fd5b81356020611b33611ac583611a5a565b82815260059290921b84018101918181019086841115611b5257600080fd5b8286015b84811015611b6d5780358352918301918301611b56565b509695505050505050565b60008060408385031215611b8b57600080fd5b82356001600160401b0380821115611ba257600080fd5b818501915085601f830112611bb657600080fd5b81356020611bc6611ac583611a5a565b82815260059290921b84018101918181019089841115611be557600080fd5b948201945b83861015611c0c578535611bfd81611992565b82529482019490820190611bea565b96505086013592505080821115611c2257600080fd5b50611c2f85828601611b12565b9150509250929050565b6020808252825182820181905260009190848201906040850190845b81811015611c7157835183529284019291840191600101611c55565b50909695505050505050565b600060808284031215611c8f57600080fd5b50919050565b60008060408385031215611ca857600080fd5b82356001600160401b03811115611cbe57600080fd5b611cca85828601611c7d565b9250506020830135611cdb81611992565b809150509250929050565b60008083601f840112611cf857600080fd5b5081356001600160401b03811115611d0f57600080fd5b6020830191508360208260051b8501011115611d2a57600080fd5b9250929050565b600080600080600060608688031215611d4957600080fd5b85356001600160401b0380821115611d6057600080fd5b611d6c89838a01611ce6565b90975095506020880135915080821115611d8557600080fd5b50611d9288828901611ce6565b9094509250506040860135611da681611992565b809150509295509295909350565b600080600060608486031215611dc957600080fd5b8335925060208401356001600160401b03811115611de657600080fd5b611df286828701611c7d565b9250506040840135611e0381611992565b809150509250925092565b60005b83811015611e29578181015183820152602001611e11565b50506000910152565b60008151808452611e4a816020860160208601611e0e565b601f01601f19169290920160200192915050565b6020815281516020820152602082015160408201526040820151606082015260006060830151611e9960808401826001600160a01b03169052565b5060808301516001600160a01b03811660a08401525060a08301516001600160401b03811660c08401525060c08301516001600160401b03811660e08401525060e0830151610100611ef5818501836001600160401b03169052565b8401519050610120611f0c8482018361ffff169052565b8401519050610140611f218482018315159052565b808501519150506101806101608181860152611f416101a0860184611e32565b90860151858203601f190183870152909250611f5d8382611e32565b9695505050505050565b600080600060408486031215611f7c57600080fd5b83356001600160401b03811115611f9257600080fd5b611f9e86828701611ce6565b9094509250506020840135611e0381611992565b600060208284031215611fc457600080fd5b8135611fcf81611992565b9392505050565b80516020808301519190811015611c8f5760001960209190910360031b1b16919050565b600181811c9082168061200e57607f821691505b602082108103611c8f57634e487b7160e01b600052602260045260246000fd5b634e487b7160e01b600052603260045260246000fd5b634e487b7160e01b600052601160045260246000fd5b600061ffff80831681810361207157612071612044565b6001019392505050565b805161208681611992565b919050565b60006020828403121561209d57600080fd5b8151611fcf81611992565b8051801515811461208657600080fd5b6000602082840312156120ca57600080fd5b611fcf826120a8565b6000808335601e198436030181126120ea57600080fd5b8301803591506001600160401b0382111561210457600080fd5b602001915036819003821315611d2a57600080fd5b600063ffffffff80831681810361207157612071612044565b60006020828403121561214457600080fd5b81356001600160401b0381168114611fcf57600080fd5b601f8211156121a157600081815260208120601f850160051c810160208610156121825750805b601f850160051c820191505b81811015610d775782815560010161218e565b505050565b81516001600160401b038111156121bf576121bf6119ec565b6121d3816121cd8454611ffa565b8461215b565b602080601f83116001811461220857600084156121f05750858301515b600019600386901b1c1916600185901b178555610d77565b600085815260208120601f198616915b8281101561223757888601518255948401946001909101908401612218565b50858210156122555787850151600019600388901b60f8161c191681555b5050505050600190811b01905550565b60008235607e1983360301811261227b57600080fd5b9190910192915050565b600082601f83011261229657600080fd5b815160206122a6611ac583611a5a565b82815260059290921b840181019181810190868411156122c557600080fd5b8286015b84811015611b6d5780516122dc81611992565b83529183019183016122c9565b600082601f8301126122fa57600080fd5b81516001600160401b03811115612313576123136119ec565b612326601f8201601f1916602001611a2a565b81815284602083860101111561233b57600080fd5b61234c826020830160208701611e0e565b949350505050565b60006020828403121561236657600080fd5b81516001600160401b038082111561237d57600080fd5b9083019060e0828603121561239157600080fd5b612399611a02565b6123a28361207b565b81526123b06020840161207b565b60208201526040830151828111156123c757600080fd5b6123d387828601612285565b6040830152506123e5606084016120a8565b60608201526080830151828111156123fc57600080fd5b612408878286016122e9565b60808301525060a08301518281111561242057600080fd5b61242c878286016122e9565b60a08301525060c08301518281111561244457600080fd5b612450878286016122e9565b60c08301525095945050505050565b6020808252602b908201527f496e697469616c697a61626c653a20636f6e7472616374206973206e6f74206960408201526a6e697469616c697a696e6760a81b60608201526080019056fea2646970667358221220e794aa8622c78dd1acf5dfef2feceeefcf2980a144c4914715f136be35fc806164736f6c63430008150033","linkReferences":{}},"methodIdentifiers":{"attest((bytes32,uint64,bytes,bytes),address)":"62fa3d45","balanceOf(address,uint256)":"00fdd58e","balanceOfBatch(address[],uint256[])":"4e1273f4","bulkAttest((bytes32,uint64,bytes,bytes)[],address)":"a8e2812d","bulkReplace(bytes32[],(bytes32,uint64,bytes,bytes)[],address)":"6ec4d4cb","bulkRevoke(bytes32[])":"4ada8076","getAttestation(bytes32)":"a3112a64","getAttestationIdCounter()":"f20c1416","getVersionNumber()":"54255be0","incrementVersionNumber()":"4cbe11cb","initialize()":"8129fc1c","isRegistered(bytes32)":"27258b22","isRevocable(address)":"d46f6a2c","massImport((bytes32,uint64,bytes,bytes)[],address)":"d0fc9f83","owner()":"8da5cb5b","renounceOwnership()":"715018a6","replace(bytes32,(bytes32,uint64,bytes,bytes),address)":"8ffa736b","revoke(bytes32)":"b75c7dc6","router()":"f887ea40","transferOwnership(address)":"f2fde38b","updateRouter(address)":"c851cc32"},"id":32}