{
  "abi": [
    {
      "inputs": [
        {
          "internalType": "address[]",
          "name": "modules",
          "type": "address[]"
        },
        {
          "internalType": "address",
          "name": "router",
          "type": "address"
        }
      ],
      "stateMutability": "nonpayable",
      "type": "constructor"
    },
    {
      "inputs": [],
      "name": "AlreadyInitialized",
      "type": "error"
    },
    {
      "inputs": [],
      "name": "NewOwnerIsZeroAddress",
      "type": "error"
    },
    {
      "inputs": [],
      "name": "NoHandoverRequest",
      "type": "error"
    },
    {
      "inputs": [],
      "name": "OnlyPortalOwner",
      "type": "error"
    },
    {
      "inputs": [],
      "name": "Unauthorized",
      "type": "error"
    },
    {
      "anonymous": false,
      "inputs": [
        {
          "indexed": true,
          "internalType": "address",
          "name": "pendingOwner",
          "type": "address"
        }
      ],
      "name": "OwnershipHandoverCanceled",
      "type": "event"
    },
    {
      "anonymous": false,
      "inputs": [
        {
          "indexed": true,
          "internalType": "address",
          "name": "pendingOwner",
          "type": "address"
        }
      ],
      "name": "OwnershipHandoverRequested",
      "type": "event"
    },
    {
      "anonymous": false,
      "inputs": [
        {
          "indexed": true,
          "internalType": "address",
          "name": "oldOwner",
          "type": "address"
        },
        {
          "indexed": true,
          "internalType": "address",
          "name": "newOwner",
          "type": "address"
        }
      ],
      "name": "OwnershipTransferred",
      "type": "event"
    },
    {
      "inputs": [
        {
          "components": [
            {
              "internalType": "bytes32",
              "name": "schemaId",
              "type": "bytes32"
            },
            {
              "internalType": "uint64",
              "name": "expirationDate",
              "type": "uint64"
            },
            {
              "internalType": "bytes",
              "name": "subject",
              "type": "bytes"
            },
            {
              "internalType": "bytes",
              "name": "attestationData",
              "type": "bytes"
            }
          ],
          "internalType": "struct AttestationPayload",
          "name": "attestationPayload",
          "type": "tuple"
        },
        {
          "internalType": "bytes[]",
          "name": "validationPayloads",
          "type": "bytes[]"
        }
      ],
      "name": "attest",
      "outputs": [],
      "stateMutability": "payable",
      "type": "function"
    },
    {
      "inputs": [],
      "name": "attestationRegistry",
      "outputs": [
        {
          "internalType": "contract AttestationRegistry",
          "name": "",
          "type": "address"
        }
      ],
      "stateMutability": "view",
      "type": "function"
    },
    {
      "inputs": [
        {
          "components": [
            {
              "internalType": "bytes32",
              "name": "schemaId",
              "type": "bytes32"
            },
            {
              "internalType": "uint64",
              "name": "expirationDate",
              "type": "uint64"
            },
            {
              "internalType": "bytes",
              "name": "subject",
              "type": "bytes"
            },
            {
              "internalType": "bytes",
              "name": "attestationData",
              "type": "bytes"
            }
          ],
          "internalType": "struct AttestationPayload[]",
          "name": "attestationsPayloads",
          "type": "tuple[]"
        },
        {
          "internalType": "bytes[][]",
          "name": "validationPayloads",
          "type": "bytes[][]"
        }
      ],
      "name": "bulkAttest",
      "outputs": [],
      "stateMutability": "nonpayable",
      "type": "function"
    },
    {
      "inputs": [
        {
          "internalType": "bytes32[]",
          "name": "attestationIds",
          "type": "bytes32[]"
        },
        {
          "components": [
            {
              "internalType": "bytes32",
              "name": "schemaId",
              "type": "bytes32"
            },
            {
              "internalType": "uint64",
              "name": "expirationDate",
              "type": "uint64"
            },
            {
              "internalType": "bytes",
              "name": "subject",
              "type": "bytes"
            },
            {
              "internalType": "bytes",
              "name": "attestationData",
              "type": "bytes"
            }
          ],
          "internalType": "struct AttestationPayload[]",
          "name": "attestationsPayloads",
          "type": "tuple[]"
        },
        {
          "internalType": "bytes[][]",
          "name": "validationPayloads",
          "type": "bytes[][]"
        }
      ],
      "name": "bulkReplace",
      "outputs": [],
      "stateMutability": "nonpayable",
      "type": "function"
    },
    {
      "inputs": [
        {
          "internalType": "bytes32[]",
          "name": "attestationIds",
          "type": "bytes32[]"
        }
      ],
      "name": "bulkRevoke",
      "outputs": [],
      "stateMutability": "nonpayable",
      "type": "function"
    },
    {
      "inputs": [],
      "name": "cancelOwnershipHandover",
      "outputs": [],
      "stateMutability": "payable",
      "type": "function"
    },
    {
      "inputs": [
        {
          "internalType": "address",
          "name": "pendingOwner",
          "type": "address"
        }
      ],
      "name": "completeOwnershipHandover",
      "outputs": [],
      "stateMutability": "payable",
      "type": "function"
    },
    {
      "inputs": [],
      "name": "getAttester",
      "outputs": [
        {
          "internalType": "address",
          "name": "",
          "type": "address"
        }
      ],
      "stateMutability": "view",
      "type": "function"
    },
    {
      "inputs": [],
      "name": "getModules",
      "outputs": [
        {
          "internalType": "address[]",
          "name": "",
          "type": "address[]"
        }
      ],
      "stateMutability": "view",
      "type": "function"
    },
    {
      "inputs": [],
      "name": "moduleRegistry",
      "outputs": [
        {
          "internalType": "contract ModuleRegistry",
          "name": "",
          "type": "address"
        }
      ],
      "stateMutability": "view",
      "type": "function"
    },
    {
      "inputs": [
        {
          "internalType": "uint256",
          "name": "",
          "type": "uint256"
        }
      ],
      "name": "modules",
      "outputs": [
        {
          "internalType": "address",
          "name": "",
          "type": "address"
        }
      ],
      "stateMutability": "view",
      "type": "function"
    },
    {
      "inputs": [],
      "name": "owner",
      "outputs": [
        {
          "internalType": "address",
          "name": "result",
          "type": "address"
        }
      ],
      "stateMutability": "view",
      "type": "function"
    },
    {
      "inputs": [
        {
          "internalType": "address",
          "name": "pendingOwner",
          "type": "address"
        }
      ],
      "name": "ownershipHandoverExpiresAt",
      "outputs": [
        {
          "internalType": "uint256",
          "name": "result",
          "type": "uint256"
        }
      ],
      "stateMutability": "view",
      "type": "function"
    },
    {
      "inputs": [],
      "name": "portalRegistry",
      "outputs": [
        {
          "internalType": "contract PortalRegistry",
          "name": "",
          "type": "address"
        }
      ],
      "stateMutability": "view",
      "type": "function"
    },
    {
      "inputs": [],
      "name": "renounceOwnership",
      "outputs": [],
      "stateMutability": "payable",
      "type": "function"
    },
    {
      "inputs": [
        {
          "internalType": "bytes32",
          "name": "attestationId",
          "type": "bytes32"
        },
        {
          "components": [
            {
              "internalType": "bytes32",
              "name": "schemaId",
              "type": "bytes32"
            },
            {
              "internalType": "uint64",
              "name": "expirationDate",
              "type": "uint64"
            },
            {
              "internalType": "bytes",
              "name": "subject",
              "type": "bytes"
            },
            {
              "internalType": "bytes",
              "name": "attestationData",
              "type": "bytes"
            }
          ],
          "internalType": "struct AttestationPayload",
          "name": "attestationPayload",
          "type": "tuple"
        },
        {
          "internalType": "bytes[]",
          "name": "validationPayloads",
          "type": "bytes[]"
        }
      ],
      "name": "replace",
      "outputs": [],
      "stateMutability": "payable",
      "type": "function"
    },
    {
      "inputs": [],
      "name": "requestOwnershipHandover",
      "outputs": [],
      "stateMutability": "payable",
      "type": "function"
    },
    {
      "inputs": [
        {
          "internalType": "address[]",
          "name": "newModules",
          "type": "address[]"
        }
      ],
      "name": "resetModules",
      "outputs": [],
      "stateMutability": "nonpayable",
      "type": "function"
    },
    {
      "inputs": [
        {
          "internalType": "bytes32",
          "name": "attestationId",
          "type": "bytes32"
        }
      ],
      "name": "revoke",
      "outputs": [],
      "stateMutability": "nonpayable",
      "type": "function"
    },
    {
      "inputs": [],
      "name": "router",
      "outputs": [
        {
          "internalType": "contract IRouter",
          "name": "",
          "type": "address"
        }
      ],
      "stateMutability": "view",
      "type": "function"
    },
    {
      "inputs": [
        {
          "internalType": "bytes4",
          "name": "interfaceID",
          "type": "bytes4"
        }
      ],
      "name": "supportsInterface",
      "outputs": [
        {
          "internalType": "bool",
          "name": "",
          "type": "bool"
        }
      ],
      "stateMutability": "pure",
      "type": "function"
    },
    {
      "inputs": [
        {
          "internalType": "address",
          "name": "newOwner",
          "type": "address"
        }
      ],
      "name": "transferOwnership",
      "outputs": [],
      "stateMutability": "payable",
      "type": "function"
    },
    {
      "inputs": [
        {
          "internalType": "address payable",
          "name": "to",
          "type": "address"
        },
        {
          "internalType": "uint256",
          "name": "amount",
          "type": "uint256"
        }
      ],
      "name": "withdraw",
      "outputs": [],
      "stateMutability": "nonpayable",
      "type": "function"
    }
  ],
  "bytecode": {
    "object": "0x60806040523480156200001157600080fd5b5060405162001b4838038062001b48833981016040819052620000349162000305565b8181818181600190805190602001906200005092919062000251565b50600080546001600160a01b0319166001600160a01b0383169081179091556040805163bfa6658560e01b8152905163bfa66585916004808201926020929091908290030181865afa158015620000ab573d6000803e3d6000fd5b505050506040513d601f19601f82011682018060405250810190620000d19190620003eb565b600380546001600160a01b0319166001600160a01b03928316179055600054604080516376f63ca960e11b81529051919092169163edec79529160048083019260209291908290030181865afa15801562000130573d6000803e3d6000fd5b505050506040513d601f19601f82011682018060405250810190620001569190620003eb565b600280546001600160a01b0319166001600160a01b0392831617905560005460408051635bed64bb60e11b81529051919092169163b7dac9769160048083019260209291908290030181865afa158015620001b5573d6000803e3d6000fd5b505050506040513d601f19601f82011682018060405250810190620001db9190620003eb565b600480546001600160a01b0319166001600160a01b0392909216919091179055506200020d9250339150620002159050565b505062000410565b6001600160a01b0316638b78c6d8198190558060007f8be0079c531659141344cd1fd0a4f28419497f9722a3daafe3b4186f6b6457e08180a350565b828054828255906000526020600020908101928215620002a9579160200282015b82811115620002a957825182546001600160a01b0319166001600160a01b0390911617825560209092019160019091019062000272565b50620002b7929150620002bb565b5090565b5b80821115620002b75760008155600101620002bc565b634e487b7160e01b600052604160045260246000fd5b80516001600160a01b03811681146200030057600080fd5b919050565b600080604083850312156200031957600080fd5b82516001600160401b03808211156200033157600080fd5b818501915085601f8301126200034657600080fd5b81516020828211156200035d576200035d620002d2565b8160051b604051601f19603f83011681018181108682111715620003855762000385620002d2565b604052928352818301935084810182019289841115620003a457600080fd5b948201945b83861015620003cd57620003bd86620002e8565b85529482019493820193620003a9565b9650620003de9050878201620002e8565b9450505050509250929050565b600060208284031215620003fe57600080fd5b6200040982620002e8565b9392505050565b61172880620004206000396000f3fe6080604052600436106101405760003560e01c80638da5cb5b116100b6578063ed6d73f91161006f578063ed6d73f914610320578063f04e283e14610340578063f2fde38b14610353578063f3fef3a314610366578063f887ea4014610385578063fee81cf4146103a557600080fd5b80638da5cb5b14610272578063b2494df31461028b578063b6664934146102ad578063b75c7dc6146102cd578063b95459e4146102ed578063ecdbb4fd1461030d57600080fd5b8063523ba7ca11610108578063523ba7ca146101d757806354d1f13d146101f75780635809d2a8146101ff578063715018a61461021f57806381b2248a146102275780638388e2261461025f57600080fd5b806301ffc9a714610145578063074321961461017a578063256929621461018f5780633cc30e2a146101975780634ada8076146101b7575b600080fd5b34801561015157600080fd5b50610165610160366004610aea565b6103e6565b60405190151581526020015b60405180910390f35b61018d610188366004610d61565b610438565b005b61018d610512565b3480156101a357600080fd5b5061018d6101b2366004610f1d565b610561565b3480156101c357600080fd5b5061018d6101d2366004610fa4565b610631565b3480156101e357600080fd5b5061018d6101f2366004610fe0565b61069f565b61018d610736565b34801561020b57600080fd5b5061018d61021a366004611039565b610772565b61018d61078b565b34801561023357600080fd5b506102476102423660046110ad565b61079f565b6040516001600160a01b039091168152602001610171565b34801561026b57600080fd5b5033610247565b34801561027e57600080fd5b50638b78c6d81954610247565b34801561029757600080fd5b506102a06107c9565b60405161017191906110c6565b3480156102b957600080fd5b50600454610247906001600160a01b031681565b3480156102d957600080fd5b5061018d6102e83660046110ad565b61082b565b3480156102f957600080fd5b50600254610247906001600160a01b031681565b61018d61031b366004611113565b610865565b34801561032c57600080fd5b50600354610247906001600160a01b031681565b61018d61034e36600461118a565b61090c565b61018d61036136600461118a565b61094c565b34801561037257600080fd5b5061018d6103813660046111a7565b5050565b34801561039157600080fd5b50600054610247906001600160a01b031681565b3480156103b157600080fd5b506103d86103c036600461118a565b63389a75e1600c908152600091909152602090205490565b604051908152602001610171565b60006001600160e01b0319821663204cf90960e01b148061041757506001600160e01b031982166331c1afd560e01b145b8061043257506001600160e01b031982166301ffc9a760e01b145b92915050565b60025460405163747129e560e11b81526001600160a01b039091169063e8e253ca9061046f90600190869086903490600401611315565b600060405180830381600087803b15801561048957600080fd5b505af115801561049d573d6000803e3d6000fd5b505050506104ac826103813390565b6003546001600160a01b03166362fa3d4583336040518363ffffffff1660e01b81526004016104dc929190611360565b600060405180830381600087803b1580156104f657600080fd5b505af115801561050a573d6000803e3d6000fd5b505050505050565b60006202a3006001600160401b03164201905063389a75e1600c5233600052806020600c2055337fdbf36a107da19e49527a7176a1babf963b4b0ff8cde35ee35d6cd8f1f9ac7e1d600080a250565b60025460405163715d762560e11b81526001600160a01b039091169063e2baec4a9061059690600190869086906004016113d2565b600060405180830381600087803b1580156105b057600080fd5b505af11580156105c4573d6000803e3d6000fd5b505050506003546001600160a01b0316636ec4d4cb8484336040518463ffffffff1660e01b81526004016105fa93929190611489565b600060405180830381600087803b15801561061457600080fd5b505af1158015610628573d6000803e3d6000fd5b50505050505050565b61063a81610973565b60035460405163256d403b60e11b81526001600160a01b0390911690634ada80769061066a9084906004016114c7565b600060405180830381600087803b15801561068457600080fd5b505af1158015610698573d6000803e3d6000fd5b5050505050565b60025460405163715d762560e11b81526001600160a01b039091169063e2baec4a906106d490600190869086906004016113d2565b600060405180830381600087803b1580156106ee57600080fd5b505af1158015610702573d6000803e3d6000fd5b505050506003546001600160a01b031663a8e2812d83336040518363ffffffff1660e01b81526004016104dc9291906114da565b63389a75e1600c523360005260006020600c2055337ffa7b8eab7da67f412cc9575ed43464468f9bfbae89d1675917346ca6d8fe3c92600080a2565b61077a610a19565b61078660018383610a72565b505050565b610793610a19565b61079d6000610a34565b565b600181815481106107af57600080fd5b6000918252602090912001546001600160a01b0316905081565b6060600180548060200260200160405190810160405280929190818152602001828054801561082157602002820191906000526020600020905b81546001600160a01b03168152600190910190602001808311610803575b5050505050905090565b61083481610973565b600354604051635bae3ee360e11b8152600481018390526001600160a01b039091169063b75c7dc69060240161066a565b60025460405163747129e560e11b81526001600160a01b039091169063e8e253ca9061089c90600190869086903490600401611315565b600060405180830381600087803b1580156108b657600080fd5b505af11580156108ca573d6000803e3d6000fd5b505050506108da83836107863390565b6003546001600160a01b0316638ffa736b8484336040518463ffffffff1660e01b81526004016105fa939291906114ed565b610914610a19565b63389a75e1600c52806000526020600c20805442111561093c57636f5e88186000526004601cfd5b6000905561094981610a34565b50565b610954610a19565b8060601b61096a57637448fbae6000526004601cfd5b61094981610a34565b6004805460405163181f78e960e31b815230928101929092526001600160a01b03169063c0fbc74890602401600060405180830381865afa1580156109bc573d6000803e3d6000fd5b505050506040513d6000823e601f3d908101601f191682016040526109e491908101906115e7565b602001516001600160a01b0316336001600160a01b031614610949576040516371f63e3160e01b815260040160405180910390fd5b638b78c6d81954331461079d576382b429006000526004601cfd5b638b78c6d81980546001600160a01b039092169182907f8be0079c531659141344cd1fd0a4f28419497f9722a3daafe3b4186f6b6457e0600080a355565b828054828255906000526020600020908101928215610ac5579160200282015b82811115610ac55781546001600160a01b0319166001600160a01b03843516178255602090920191600190910190610a92565b50610ad1929150610ad5565b5090565b5b80821115610ad15760008155600101610ad6565b600060208284031215610afc57600080fd5b81356001600160e01b031981168114610b1457600080fd5b9392505050565b634e487b7160e01b600052604160045260246000fd5b60405160e081016001600160401b0381118282101715610b5357610b53610b1b565b60405290565b604051601f8201601f191681016001600160401b0381118282101715610b8157610b81610b1b565b604052919050565b60006001600160401b03821115610ba257610ba2610b1b565b50601f01601f191660200190565b600082601f830112610bc157600080fd5b8135610bd4610bcf82610b89565b610b59565b818152846020838601011115610be957600080fd5b816020850160208301376000918101602001919091529392505050565b600060808284031215610c1857600080fd5b604051608081016001600160401b038282108183111715610c3b57610c3b610b1b565b8160405282935084358352602085013591508082168214610c5b57600080fd5b8160208401526040850135915080821115610c7557600080fd5b610c8186838701610bb0565b60408401526060850135915080821115610c9a57600080fd5b50610ca785828601610bb0565b6060830152505092915050565b60006001600160401b03821115610ccd57610ccd610b1b565b5060051b60200190565b600082601f830112610ce857600080fd5b81356020610cf8610bcf83610cb4565b82815260059290921b84018101918181019086841115610d1757600080fd5b8286015b84811015610d565780356001600160401b03811115610d3a5760008081fd5b610d488986838b0101610bb0565b845250918301918301610d1b565b509695505050505050565b60008060408385031215610d7457600080fd5b82356001600160401b0380821115610d8b57600080fd5b610d9786838701610c06565b93506020850135915080821115610dad57600080fd5b50610dba85828601610cd7565b9150509250929050565b600082601f830112610dd557600080fd5b81356020610de5610bcf83610cb4565b82815260059290921b84018101918181019086841115610e0457600080fd5b8286015b84811015610d565780358352918301918301610e08565b600082601f830112610e3057600080fd5b81356020610e40610bcf83610cb4565b82815260059290921b84018101918181019086841115610e5f57600080fd5b8286015b84811015610d565780356001600160401b03811115610e825760008081fd5b610e908986838b0101610c06565b845250918301918301610e63565b600082601f830112610eaf57600080fd5b81356020610ebf610bcf83610cb4565b82815260059290921b84018101918181019086841115610ede57600080fd5b8286015b84811015610d565780356001600160401b03811115610f015760008081fd5b610f0f8986838b0101610cd7565b845250918301918301610ee2565b600080600060608486031215610f3257600080fd5b83356001600160401b0380821115610f4957600080fd5b610f5587838801610dc4565b94506020860135915080821115610f6b57600080fd5b610f7787838801610e1f565b93506040860135915080821115610f8d57600080fd5b50610f9a86828701610e9e565b9150509250925092565b600060208284031215610fb657600080fd5b81356001600160401b03811115610fcc57600080fd5b610fd884828501610dc4565b949350505050565b60008060408385031215610ff357600080fd5b82356001600160401b038082111561100a57600080fd5b61101686838701610e1f565b9350602085013591508082111561102c57600080fd5b50610dba85828601610e9e565b6000806020838503121561104c57600080fd5b82356001600160401b038082111561106357600080fd5b818501915085601f83011261107757600080fd5b81358181111561108657600080fd5b8660208260051b850101111561109b57600080fd5b60209290920196919550909350505050565b6000602082840312156110bf57600080fd5b5035919050565b6020808252825182820181905260009190848201906040850190845b818110156111075783516001600160a01b0316835292840192918401916001016110e2565b50909695505050505050565b60008060006060848603121561112857600080fd5b8335925060208401356001600160401b038082111561114657600080fd5b61115287838801610c06565b9350604086013591508082111561116857600080fd5b50610f9a86828701610cd7565b6001600160a01b038116811461094957600080fd5b60006020828403121561119c57600080fd5b8135610b1481611175565b600080604083850312156111ba57600080fd5b82356111c581611175565b946020939093013593505050565b6000815480845260208085019450836000528060002060005b838110156112115781546001600160a01b0316875295820195600191820191016111ec565b509495945050505050565b60005b8381101561123757818101518382015260200161121f565b50506000910152565b6000815180845261125881602086016020860161121c565b601f01601f19169290920160200192915050565b805182526001600160401b036020820151166020830152600060408201516080604085015261129e6080850182611240565b9050606083015184820360608601526112b78282611240565b95945050505050565b600081518084526020808501808196508360051b8101915082860160005b858110156113085782840389526112f6848351611240565b988501989350908401906001016112de565b5091979650505050505050565b60808152600061132860808301876111d3565b828103602084015261133a818761126c565b9050828103604084015261134e81866112c0565b91505082606083015295945050505050565b604081526000611373604083018561126c565b905060018060a01b03831660208301529392505050565b600081518084526020808501808196508360051b8101915082860160005b858110156113085782840389526113c084835161126c565b988501989350908401906001016113a8565b6060815260006113e560608301866111d3565b6020838203818501526113f8828761138a565b915083820360408501528185518084528284019150828160051b85010183880160005b8381101561144957601f198784030185526114378383516112c0565b9486019492509085019060010161141b565b50909a9950505050505050505050565b600081518084526020808501945080840160005b838110156112115781518752958201959082019060010161146d565b60608152600061149c6060830186611459565b82810360208401526114ae818661138a565b91505060018060a01b0383166040830152949350505050565b602081526000610b146020830184611459565b604081526000611373604083018561138a565b838152606060208201526000611506606083018561126c565b905060018060a01b0383166040830152949350505050565b805161152981611175565b919050565b600082601f83011261153f57600080fd5b8151602061154f610bcf83610cb4565b82815260059290921b8401810191818101908684111561156e57600080fd5b8286015b84811015610d5657805161158581611175565b8352918301918301611572565b8051801515811461152957600080fd5b600082601f8301126115b357600080fd5b81516115c1610bcf82610b89565b8181528460208386010111156115d657600080fd5b610fd882602083016020870161121c565b6000602082840312156115f957600080fd5b81516001600160401b038082111561161057600080fd5b9083019060e0828603121561162457600080fd5b61162c610b31565b6116358361151e565b81526116436020840161151e565b602082015260408301518281111561165a57600080fd5b6116668782860161152e565b60408301525061167860608401611592565b606082015260808301518281111561168f57600080fd5b61169b878286016115a2565b60808301525060a0830151828111156116b357600080fd5b6116bf878286016115a2565b60a08301525060c0830151828111156116d757600080fd5b6116e3878286016115a2565b60c0830152509594505050505056fea2646970667358221220ca864a5655c70417db2e4686d69bde5e188c01c0e10ada3ee0f1b0b9e0e6395964736f6c63430008150033",
    "linkReferences": {}
  },
  "methodIdentifiers": {
    "attest((bytes32,uint64,bytes,bytes),bytes[])": "07432196",
    "attestationRegistry()": "ed6d73f9",
    "bulkAttest((bytes32,uint64,bytes,bytes)[],bytes[][])": "523ba7ca",
    "bulkReplace(bytes32[],(bytes32,uint64,bytes,bytes)[],bytes[][])": "3cc30e2a",
    "bulkRevoke(bytes32[])": "4ada8076",
    "cancelOwnershipHandover()": "54d1f13d",
    "completeOwnershipHandover(address)": "f04e283e",
    "getAttester()": "8388e226",
    "getModules()": "b2494df3",
    "moduleRegistry()": "b95459e4",
    "modules(uint256)": "81b2248a",
    "owner()": "8da5cb5b",
    "ownershipHandoverExpiresAt(address)": "fee81cf4",
    "portalRegistry()": "b6664934",
    "renounceOwnership()": "715018a6",
    "replace(bytes32,(bytes32,uint64,bytes,bytes),bytes[])": "ecdbb4fd",
    "requestOwnershipHandover()": "25692962",
    "resetModules(address[])": "5809d2a8",
    "revoke(bytes32)": "b75c7dc6",
    "router()": "f887ea40",
    "supportsInterface(bytes4)": "01ffc9a7",
    "transferOwnership(address)": "f2fde38b",
    "withdraw(address,uint256)": "f3fef3a3"
  },
  "id": 105
}