{
  "abi": [
    {
      "inputs": [
        {
          "internalType": "address",
          "name": "_attestationRegistry",
          "type": "address"
        },
        {
          "internalType": "address",
          "name": "_portal",
          "type": "address"
        },
        {
          "internalType": "address",
          "name": "_token",
          "type": "address"
        }
      ],
      "stateMutability": "nonpayable",
      "type": "constructor"
    },
    {
      "inputs": [
        {
          "internalType": "bytes32",
          "name": "attestationId",
          "type": "bytes32"
        }
      ],
      "name": "Attestation_Expired_Or_Invalid",
      "type": "error"
    },
    {
      "anonymous": false,
      "inputs": [
        {
          "indexed": true,
          "internalType": "address",
          "name": "previousOwner",
          "type": "address"
        },
        {
          "indexed": true,
          "internalType": "address",
          "name": "newOwner",
          "type": "address"
        }
      ],
      "name": "OwnershipTransferred",
      "type": "event"
    },
    {
      "inputs": [],
      "name": "MACHINEHOOD_SCHEMA_ID",
      "outputs": [
        {
          "internalType": "bytes32",
          "name": "",
          "type": "bytes32"
        }
      ],
      "stateMutability": "view",
      "type": "function"
    },
    {
      "inputs": [
        {
          "internalType": "bytes32",
          "name": "attestationId",
          "type": "bytes32"
        }
      ],
      "name": "attestationIsValid",
      "outputs": [
        {
          "internalType": "bool",
          "name": "",
          "type": "bool"
        }
      ],
      "stateMutability": "view",
      "type": "function"
    },
    {
      "inputs": [],
      "name": "attestationRegistry",
      "outputs": [
        {
          "internalType": "contract AttestationRegistry",
          "name": "",
          "type": "address"
        }
      ],
      "stateMutability": "view",
      "type": "function"
    },
    {
      "inputs": [],
      "name": "attestationValidityDurationInSeconds",
      "outputs": [
        {
          "internalType": "uint256",
          "name": "",
          "type": "uint256"
        }
      ],
      "stateMutability": "view",
      "type": "function"
    },
    {
      "inputs": [],
      "name": "machinehoodPortal",
      "outputs": [
        {
          "internalType": "address",
          "name": "",
          "type": "address"
        }
      ],
      "stateMutability": "view",
      "type": "function"
    },
    {
      "inputs": [],
      "name": "owner",
      "outputs": [
        {
          "internalType": "address",
          "name": "",
          "type": "address"
        }
      ],
      "stateMutability": "view",
      "type": "function"
    },
    {
      "inputs": [],
      "name": "renounceOwnership",
      "outputs": [],
      "stateMutability": "nonpayable",
      "type": "function"
    },
    {
      "inputs": [
        {
          "internalType": "bytes32",
          "name": "attestationId",
          "type": "bytes32"
        }
      ],
      "name": "requestTokens",
      "outputs": [],
      "stateMutability": "nonpayable",
      "type": "function"
    },
    {
      "inputs": [
        {
          "internalType": "uint256",
          "name": "_newDuration",
          "type": "uint256"
        }
      ],
      "name": "setAttestationValidityDuration",
      "outputs": [],
      "stateMutability": "nonpayable",
      "type": "function"
    },
    {
      "inputs": [],
      "name": "token",
      "outputs": [
        {
          "internalType": "contract MockERC20",
          "name": "",
          "type": "address"
        }
      ],
      "stateMutability": "view",
      "type": "function"
    },
    {
      "inputs": [
        {
          "internalType": "address",
          "name": "newOwner",
          "type": "address"
        }
      ],
      "name": "transferOwnership",
      "outputs": [],
      "stateMutability": "nonpayable",
      "type": "function"
    }
  ],
  "bytecode": {
    "object": "0x60e060405234801561001057600080fd5b50604051610add380380610add83398101604081905261002f916100c0565b61003833610054565b6001600160a01b0392831660a052821660c05216608052610103565b600080546001600160a01b038381166001600160a01b0319831681178455604051919092169283917f8be0079c531659141344cd1fd0a4f28419497f9722a3daafe3b4186f6b6457e09190a35050565b80516001600160a01b03811681146100bb57600080fd5b919050565b6000806000606084860312156100d557600080fd5b6100de846100a4565b92506100ec602085016100a4565b91506100fa604085016100a4565b90509250925092565b60805160a05160c05161099061014d600039600081816101d3015261031c0152600081816101990152818161021b01526103b701526000818160e3015261059401526109906000f3fe608060405234801561001057600080fd5b50600436106100a95760003560e01c806396c195ae1161007157806396c195ae14610133578063b23e0c3b14610156578063cf9b71b61461018b578063ed6d73f914610194578063f2fde38b146101bb578063fc0c546a146101ce57600080fd5b80630fc82c41146100ae57806311c6bd57146100c3578063715018a6146100d65780637f9efce3146100de5780638da5cb5b14610122575b600080fd5b6100c16100bc36600461063a565b6101f5565b005b6100c16100d136600461063a565b610202565b6100c1610380565b6101057f000000000000000000000000000000000000000000000000000000000000000081565b6040516001600160a01b0390911681526020015b60405180910390f35b6000546001600160a01b0316610105565b61014661014136600461063a565b610394565b6040519015158152602001610119565b61017d7ffcd7908635f4a15e4c4ae351f13f9aa393e56e67aca82e5ffd3cf5c463464ee781565b604051908152602001610119565b61017d60015481565b6101057f000000000000000000000000000000000000000000000000000000000000000081565b6100c16101c9366004610668565b610438565b6101057f000000000000000000000000000000000000000000000000000000000000000081565b6101fd6104b1565b600155565b6040516328c44a9960e21b8152600481018290526000907f00000000000000000000000000000000000000000000000000000000000000006001600160a01b03169063a3112a6490602401600060405180830381865afa15801561026a573d6000803e3d6000fd5b505050506040513d6000823e601f3d908101601f1916820160405261029291908101906107c5565b9050600061029f8261050b565b9050806102c7576040516346bdf24360e11b8152600481018490526024015b60405180910390fd5b600067016345785d8a0000905060008361016001518060200190518101906102ef91906108f4565b50506040516340c10f1960e01b81526001600160a01b0380831660048301526024820185905291925082917f000000000000000000000000000000000000000000000000000000000000000016906340c10f1990604401600060405180830381600087803b15801561036057600080fd5b505af1158015610374573d6000803e3d6000fd5b50505050505050505050565b6103886104b1565b61039260006105ea565b565b6040516328c44a9960e21b81526004810182905260009081906001600160a01b037f0000000000000000000000000000000000000000000000000000000000000000169063a3112a6490602401600060405180830381865afa1580156103fe573d6000803e3d6000fd5b505050506040513d6000823e601f3d908101601f1916820160405261042691908101906107c5565b90506104318161050b565b9392505050565b6104406104b1565b6001600160a01b0381166104a55760405162461bcd60e51b815260206004820152602660248201527f4f776e61626c653a206e6577206f776e657220697320746865207a65726f206160448201526564647265737360d01b60648201526084016102be565b6104ae816105ea565b50565b6000546001600160a01b031633146103925760405162461bcd60e51b815260206004820181905260248201527f4f776e61626c653a2063616c6c6572206973206e6f7420746865206f776e657260448201526064016102be565b6000806001548360a0015167ffffffffffffffff1661052a9190610933565b42101590508260c0015167ffffffffffffffff1660001461056257808061055f57508260c0015167ffffffffffffffff164210155b90505b60007ffcd7908635f4a15e4c4ae351f13f9aa393e56e67aca82e5ffd3cf5c463464ee760001b846020015114905060007f00000000000000000000000000000000000000000000000000000000000000006001600160a01b031685608001516001600160a01b0316149050821580156105d85750815b80156105e15750805b95945050505050565b600080546001600160a01b038381166001600160a01b0319831681178455604051919092169283917f8be0079c531659141344cd1fd0a4f28419497f9722a3daafe3b4186f6b6457e09190a35050565b60006020828403121561064c57600080fd5b5035919050565b6001600160a01b03811681146104ae57600080fd5b60006020828403121561067a57600080fd5b813561043181610653565b634e487b7160e01b600052604160045260246000fd5b604051610180810167ffffffffffffffff811182821017156106bf576106bf610685565b60405290565b604051601f8201601f1916810167ffffffffffffffff811182821017156106ee576106ee610685565b604052919050565b805161070181610653565b919050565b805167ffffffffffffffff8116811461070157600080fd5b805161ffff8116811461070157600080fd5b8051801515811461070157600080fd5b600082601f83011261075157600080fd5b815167ffffffffffffffff81111561076b5761076b610685565b602061077f601f8301601f191682016106c5565b828152858284870101111561079357600080fd5b60005b838110156107b1578581018301518282018401528201610796565b506000928101909101919091529392505050565b6000602082840312156107d757600080fd5b815167ffffffffffffffff808211156107ef57600080fd5b90830190610180828603121561080457600080fd5b61080c61069b565b825181526020830151602082015260408301516040820152610830606084016106f6565b6060820152610841608084016106f6565b608082015261085260a08401610706565b60a082015261086360c08401610706565b60c082015261087460e08401610706565b60e082015261010061088781850161071e565b90820152610120610899848201610730565b9082015261014083810151838111156108b157600080fd5b6108bd88828701610740565b82840152505061016080840151838111156108d757600080fd5b6108e388828701610740565b918301919091525095945050505050565b60008060006060848603121561090957600080fd5b83519250602084015160ff8116811461092157600080fd5b80925050604084015190509250925092565b8082018082111561095457634e487b7160e01b600052601160045260246000fd5b9291505056fea26469706673582212207b9dd617ec6fc48ae9d9a85985c08b7bc5c943b547a7058973639932d6b6364764736f6c63430008150033",
    "linkReferences": {}
  },
  "methodIdentifiers": {
    "MACHINEHOOD_SCHEMA_ID()": "b23e0c3b",
    "attestationIsValid(bytes32)": "96c195ae",
    "attestationRegistry()": "ed6d73f9",
    "attestationValidityDurationInSeconds()": "cf9b71b6",
    "machinehoodPortal()": "7f9efce3",
    "owner()": "8da5cb5b",
    "renounceOwnership()": "715018a6",
    "requestTokens(bytes32)": "11c6bd57",
    "setAttestationValidityDuration(uint256)": "0fc82c41",
    "token()": "fc0c546a",
    "transferOwnership(address)": "f2fde38b"
  },
  "id": 102
}